:1000000009C01AC018C017C016C015C014C013C04C
:1000100012C011C011241FBECFE9CDBF10E0A0E671
:10002000B0E0E2EEF0E002C005900D92A236B1071A
:10003000D9F727D054C0E4CF1F920F920FB60F927A
:1000400011248F939F93C49883E294EF0197F1F763
:1000500000C000008091600090916100843691059D
:1000600019F489E190E002C084E690E09093610089
:10007000809360009F918F910F900FBE0F901F9003
:100080001895BC9AB998C19A8BB780648BBF83E0EE
:1000900085BF789420E144E650E028BB8091600061
:1000A00090916100BA01681B790BCB0177FD019635
:1000B00095958795181619061CF400000197FACF3C
:1000C000C498809160009091610097FD019695958C
:1000D0008795181619060CF700000197FACFF894C7
:0200E000FFCF50
:0200E2006400B8
:00000001FF
